:0300000002056E88
:0100030032CA
:01000B0032C2
:0100130032BA
:01001B0032B2
:0100230032AA
:03002B0002053E8D
:10002E00C00078B10000D8FCD00022C000C0017919
:10003E002D78A6D8FED9FADAF6D001D00022D2B3A6
:10004E0012002EC2B322A2E792B7A2E692B6A2E5A2
:10005E0092B5A2E492B412004C12002EA2E392B713
:10006E00A2E292B6A2E192B5A2E092B412004C22A4
:10007E00D2B2020054C2B2020054C2B374331200A0
:10008E008374331200837432120083742812008337
:10009E00740C1200837401120083C0027A021200E3
:1000AE0039D00222E493600612007EA380F6224429
:1000BE00404480020083C0E0E8C4540F4430120074
:0C00CE007EE8540F443012007ED0E02287
:1000DA00C0E0C0D0C000C001C002E4F53BF53CF569
:1000EA003DF53EF53F7A20E536A2E779047833E616
:1000FA0033F608D9FA7905783BE636D4F608D9F901
:10010A00DAE5D002D001D000D0D0D0E022C0E0C0E1
:10011A00D0C000C001C002E4F53BF53CF53DF53E18
:10012A00F53F7A20E536A2E779047833E633F60814
:10013A00D9FA7905783BC0D0E6243320E70224D0E7
:10014A0020E30224FDD0D033F608D9EADAD6D00269
:10015A00D001D000D0D0D0E022C0E0C0D0C000C0D2
:10016A0001C0027A207905C3783FE613C0D030E790
:10017A000224D030E30224FDF618D0D0D9EC790459
:10018A007836E613F618D9FADADBD002D001D000B5
:10019A00D0D0D0E022C0E0C0D0E5332537F533E532
:1001AA00343538F534E5353539F535E536353AF54A
:1001BA0036D0D0D0E022C0E0C0D0C3E5339537F5C1
:1001CA0033E5349538F534E5359539F535E5369521
:1001DA003AF536D0D0D0E022C0E0C0D0C3E533959E
:1001EA0037E5349538E5359539E536953A9202D0B2
:1001FA00D0D0E022C0E0C0D0C3E5379533E53895CA
:10020A0034E5399535E53A95369202D0D0D0E022D8
:10021A00C0E0C0D0C202C3E53795337014E5389503
:10022A0034700EE53995357008E53A95367002D284
:10023A0002D0D0D0E02212021A2002030201FE22CA
:10024A0012021A2002030201E222C0E0C0F0C0D06A
:10025A00C000C001C002C003E5338537F0A4F8A985
:10026A00F0E5348537F0A429F9E435F0FAE5338569
:10027A0038F0A429F9E5F03AFAE433FBE535853795
:10028A00F0A42AFAE5F03BFBE5348538F0A42AFA13
:10029A00E5F03BFBE5338539F0A42AFAE5F03BFBB0
:1002AA00E5368537F0A42BFBE5358538F0A42BFB22
:1002BA00E5348539F0A42BFBE533853AF0A42BFB12
:1002CA008B368A3589348833D003D002D001D000E6
:1002DA00D0D0D0F0D0E022C0E0C0D0C000C001C071
:1002EA0002C003C0047C20E4F8F9FAFBC3E5333307
:1002FA00F533E53433F534E53533F535E53633F59D
:10030A0036E833F8E933F9EA33FAEB33FBC3E89515
:10031A0037E99538EA9539EB953A4013E89537F875
:10032A00E99538F9EA9539FAEB953AFB433301DC5A
:10033A00BBD004D003D002D001D000D0D0D0E0226C
:10034A00E53C54F0C4600302037FC0E0742012004D
:10035A007ED0E0E53C540F600302037FC0E07420C6
:10036A0012007ED0E0E53B54F0C47009C0E074206E
:10037A0012007ED0E022C0E0E8C4540F44301204D8
:10038A002BE8540F443012042BD0E022C0E074084A
:10039A00141200BFD0E0C000A83C1200C4D000C0B4
:1003AA0000A83B1200C4D000C0E07408141200BFB9
:1003BA00D0E012034AC000A83F120380D000C00058
:1003CA00A83E120380D000C000A83D120380D000CE
:1003DA00C000A83C120380D000C000A83B120380D2
:1003EA00D000740D12042B740A12042B22C28478D2
:1003FA00011204127880120412E95403F543785565
:10040A001204128942D28422C0E079007A08E833C1
:10041A00F89283D281A282E933F9C281DAF0D0E07C
:10042A00223099FDC299F59922E493600612042BB1
:10043A00A380F6227400A29433A29333A2923322A9
:10044A0085423385433475350075360075376775CF
:10045A00389C753900753A0012025475371C753884
:10046A00A2753900753A001202E17537167538001F
:10047A00753900753A0012019F8533441200DA2259
:10048A00753300753400753500753600854433754B
:10049A003732753800753900753A00120240200269
:1004AA0003C29122D29122536F616B3A20202078A5
:1004BA007878DF43202020005265666C6F773A20F7
:1004CA00787878DF432020200054656D703A202028
:1004DA0020787878DF4320202000546172676574A1
:1004EA003A20787878DF43202020004F56454E2066
:1004FA004F464620202020202020200075C8007565
:10050A00CDA975CC9A75CBA975CA9AE4F530F5319F
:10051A00F532D2ADD2CA2279DE78A6D8FED9FA430C
:10052A008780759852759B00759AF4759B1E22D226
:10053A0082C28122C2CFC0E0C0D00530E53070024D
:10054A000531E530B4E818E531B40313D200E4F517
:10055A0030F5310532E532B40505D201753200D0E5
:10056A00D0D0E03275817FD2AF75E60075E70075AD
:10057A00D60075D70075CE0075CF00120521120579
:10058A0039120088120506D292D293D294D295C219
:10059A0090C291C296C200C201C203753000753082
:1005AA00007540967541F002088A3095FD12043EA6
:1005BA00B4004CC296D290C0E07401141200BDD0AF
:1005CA00E0C083C082C0E09004F51200B2D0E0D04F
:1005DA0082D08330C5FD3095FD12043EB400203030
:1005EA00000BC2001203F712044A12039620C5E652
:1005FA00C0027A32120039D00220C5DA02088A30E3
:10060A0095FD12043EB4015BD296C0E07401141247
:10061A0000BDD0E0C083C082C0E09004E41200B202
:10062A00D0E0D082D08375330075340075350075FB
:10063A0036008540331200DAC0E07408141200BD97
:10064A00D0E0C000A83C1200C4D000C000A83B12F1
:10065A0000C4D000C0E07408141200BDD0E0120338
:10066A004A80030206B830000BC2001203F71204D4
:10067A004A120396300102C20175330075340075BF
:10068A003500753600753700753800753900753ACA
:10069A0000854433854037120240300202C290126C
:1006AA00048A3095FD12043EB401030206703095A7
:1006BA00FD12043EB4024830000BC2001203F712C6
:1006CA00044A120396300102C201753300753400E0
:1006DA00753500753600753700753800753900753F
:1006EA003A0085443385403712024020020DD296E3
:1006FA003095FD12043EB4020680BCC29680F130E9
:10070A0095FD12043EB4033FD2967533007534004A
:10071A007535007536008541331200DAC0E0740879
:10072A00141200BDD0E0C000A83C1200C4D000C022
:10073A0000A83B1200C4D000C0E07408141200BD27
:10074A00D0E012034A800302079830000BC200125D
:10075A0003F712044A120396300102C201753300EC
:10076A0075340075350075360075370075380075B3
:10077A003900753A00854433854137120240300208
:10078A0002D2903095FD12043EB4030280BC30952B
:10079A00FD12043EB4044B30000BC2001203F712E0
:1007AA00044A120396300102C201753300753400FF
:1007BA00753500753600753700753800753900755E
:1007CA003A00854433854137120240200210200244
:1007DA000DD2963095FD12043EB4040680B9C29635
:1007EA0080F13095FD12043EB40520C296C0E07433
:1007FA0001141200BDD0E0C083C082C0E09004F5AD
:10080A001200B2D0E0D082D083802C3095FD120441
:10081A003EB40620C296C0E07401141200BDD0E0B6
:10082A00C083C082C0E09004F51200B2D0E0D0824A
:10083A00D08380030205B430000BC2001203F71202
:10084A00044A120396300102C2017533007534005E
:10085A00753500753600753732753800753900758B
:10086A003A00854433120240200202C29112048ADD
:10087A003095FD12043EB4050280BCB406B680B7BA
:10088A00C290C0E07401141200BFD0E0C083C082DD
:10089A00C0E09004B11200B2D0E0D082D083C0E0B0
:1008AA007401141200BDD0E0C083C082C0E090047D
:1008BA00C21200B2D0E0D082D08375330075340002
:1008CA007535007536008540331200DAC0E07408C9
:1008DA00141200BFD0E0C000A83C1200C4D000C06F
:1008EA0000A83B1200C4D000C0E07408141200BF74
:1008FA00D0E012034A8541331200DAC0E0740814CA
:10090A001200BDD0E0C000A83C1200C4D000C00054
:10091A00A83B1200C4D000C0E07408141200BDD075
:10092A00E012034A854033C0E0740B141200BFD0B2
:10093A00E0C0E0740E120083D0E030C5FD208705C8
:10094A00E533B4F032208505E533B4783AC203C002
:10095A00E0740B141200BFD0E0C0E0740E120083E2
:10096A00D0E020C5D8C0027A32120039D00220C5A0
:10097A00CC853340020A39C0E0740C120083D0E0FF
:10098A000533200312804DC0E0740C120083D0E0BE
:10099A001533200302803D1200DAC0E074081412F5
:1009AA0000BFD0E0C000A83C1200C4D000C000A81C
:1009BA003B1200C4D000C0E07408141200BFD0E09B
:1009CA0012034AC0027A19120039D002308756300F
:1009DA008558C2031200DAC0E07408141200BFD0AE
:1009EA00E0C000A83C1200C4D000C000A83B12001E
:1009FA00C4D000C0E07408141200BFD0E012034A49
:100A0A00C0E0740B141200BFD0E0C0E0740E1200F4
:100A1A0083D0E0C0027AFA120039D0023087063059
:100A2A008508020947D203020947D20302094F8502
:100A3A004133C0E0740B141200BDD0E0C0E0740E64
:100A4A00120083D0E030C5FD208705E533B4F032CB
:100A5A00208505E533B4783AC203C0E0740B14125A
:100A6A0000BDD0E0C0E0740E120083D0E020C5D8EB
:100A7A00C0027A32120039D00220C5CC8533410235
:100A8A000B44C0E0740C120083D0E005332003123B
:100A9A00804DC0E0740C120083D0E01533200302AD
:100AAA00803D1200DAC0E07408141200BDD0E0C024
:100ABA0000A83C1200C4D000C000A83B1200C4D059
:100ACA0000C0E07408141200BDD0E012034AC0024C
:100ADA007A19120039D002308756308558C203126B
:100AEA0000DAC0E07408141200BDD0E0C000A83CCF
:100AFA001200C4D000C000A83B1200C4D000C0E05D
:100B0A007408141200BDD0E012034AC0E0740B143A
:100B1A001200BDD0E0C0E0740E120083D0E0C00223
:100B2A007AFA120039D002308706308508020A5252
:100B3A00D203020A52D203020A5AC0E0740C12000B
:100B4A0083D0E0C0E07401141200BFD0E0C083C0BB
:100B5A0082C0E09004D31200B2D0E0D082D08312D7
:100B6A0003F7C0E07408141200BFD0E0C000A83C2C
:100B7A001200C4D000C000A83B1200C4D000C0E0DC
:0E0B8A007408141200BFD0E012034A0205B432
:00000001FF
