:03000000020AE70A
:0100030032CA
:01000B0032C2
:0100130032BA
:03001B00020A785E
:0100230032AA
:03002B00020AB70F
:10002E00C00078B10000D8FCD00022C000C0017919
:10003E002D78A6D8FED9FADAF6D001D00022D2B3A6
:10004E0012002EC2B322A2E792B7A2E692B6A2E5A2
:10005E0092B5A2E492B412004C12002EA2E392B713
:10006E00A2E292B6A2E192B5A2E092B412004C22A4
:10007E00D2B2020054C2B2020054C2B374331200A0
:10008E008374331200837432120083742812008337
:10009E00740C1200837401120083C0027A021200E3
:1000AE0039D00222E493600612007EA380F6224429
:1000BE00404480020083C0E0E8C4540F4430120074
:0C00CE007EE8540F443012007ED0E02287
:1000DA00C0E0C0D0C000C001C002E4F53BF53CF569
:1000EA003DF53EF53F7A20E536A2E779047833E616
:1000FA0033F608D9FA7905783BE636D4F608D9F901
:10010A00DAE5D002D001D000D0D0D0E022C0E0C0E1
:10011A00D0C000C001C002E4F53BF53CF53DF53E18
:10012A00F53F7A20E536A2E779047833E633F60814
:10013A00D9FA7905783BC0D0E6243320E70224D0E7
:10014A0020E30224FDD0D033F608D9EADAD6D00269
:10015A00D001D000D0D0D0E022C0E0C0D0C000C0D2
:10016A0001C0027A207905C3783FE613C0D030E790
:10017A000224D030E30224FDF618D0D0D9EC790459
:10018A007836E613F618D9FADADBD002D001D000B5
:10019A00D0D0D0E022C0E0C0D0E5332537F533E532
:1001AA00343538F534E5353539F535E536353AF54A
:1001BA0036D0D0D0E022C0E0C0D0C3E5339537F5C1
:1001CA0033E5349538F534E5359539F535E5369521
:1001DA003AF536D0D0D0E022C0E0C0D0C3E533959E
:1001EA0037E5349538E5359539E536953A9202D0B2
:1001FA00D0D0E022C0E0C0D0C3E5379533E53895CA
:10020A0034E5399535E53A95369202D0D0D0E022D8
:10021A00C0E0C0D0C202C3E53795337014E5389503
:10022A0034700EE53995357008E53A95367002D284
:10023A0002D0D0D0E02212021A2002030201FE22CA
:10024A0012021A2002030201E222C0E0C0F0C0D06A
:10025A00C000C001C002C003E5338537F0A4F8A985
:10026A00F0E5348537F0A429F9E435F0FAE5338569
:10027A0038F0A429F9E5F03AFAE433FBE535853795
:10028A00F0A42AFAE5F03BFBE5348538F0A42AFA13
:10029A00E5F03BFBE5338539F0A42AFAE5F03BFBB0
:1002AA00E5368537F0A42BFBE5358538F0A42BFB22
:1002BA00E5348539F0A42BFBE533853AF0A42BFB12
:1002CA008B368A3589348833D003D002D001D000E6
:1002DA00D0D0D0F0D0E022C0E0C0D0C000C001C071
:1002EA0002C003C0047C20E4F8F9FAFBC3E5333307
:1002FA00F533E53433F534E53533F535E53633F59D
:10030A0036E833F8E933F9EA33FAEB33FBC3E89515
:10031A0037E99538EA9539EB953A4013E89537F875
:10032A00E99538F9EA9539FAEB953AFB433301DC5A
:10033A00BBD004D003D002D001D000D0D0D0E0226C
:10034A00E53C54F0C4600302037FC0E0742012004D
:10035A007ED0E0E53C540F600302037FC0E07420C6
:10036A0012007ED0E0E53B54F0C47009C0E074206E
:10037A0012007ED0E022C0E0E8C4540F44301204D8
:10038A0084E8540F4430120484D0E022C0E0740898
:10039A00141200BFD0E0C000A83C1200C4D000C0B4
:1003AA0000A83B1200C4D000C0E07408141200BFB9
:1003BA00D0E012034AC000A83F120380D000C00058
:1003CA00A83E120380D000C000A83D120380D000CE
:1003DA00C000A83C120380D000C000A83B120380D2
:1003EA00D000740D120484740A12048422C2847820
:1003FA00011204127880120412E95403F543785565
:10040A001204128942D28422C0E079007A08E833C1
:10041A00F89283D281A282E933F9C281DAF0D0E07C
:10042A00223392A4D2A0A2A1C2A092E03392A4D273
:10043A00A0A2A1C2A092E03392A4D2A0A2A1C2A07B
:10044A0092E03392A4D2A0A2A1C2A092E03392A4D5
:10045A00D2A0A2A1C2A092E03392A4D2A0A2A1C229
:10046A00A092E03392A4D2A0A2A1C2A092E03392B9
:10047A00A4D2A0A2A1C2A092E0223099FDC299F50D
:10048A009922E4936006120484A380F6227400A2DF
:10049A009433A29333A2923322854233854334752F
:1004AA00350075360075376775389C753900753AA9
:1004BA000012025475371C7538A2753900753A0056
:1004CA001202E1753716753800753900753A00124F
:1004DA00019F8533441200DA2275330075340075A2
:1004EA0035007536008544337537327538007539ED
:1004FA0000753A00120240200203C29122D29122D0
:10050A003005FDC2A5740312042B90090AE875F0A0
:10051A0003A42582F582E5F03583F583E49312047A
:10052A002BA3E49312042BA3E49312042B900979CE
:10053A00E875F003A42582F582E5F03583F583E4B6
:10054A0093F548A3E493F547A3E493F546D2A6D2DC
:10055A008E22753300753400753500753600854472
:10056A00337537C8753800753900753A001202407C
:10057A0030020B781C12050A1201C00205A5753754
:10058A0064753800753900753A0012024030020B62
:10059A00781B12050A1201C00205A575375A75386B
:1005AA0000753900753A0012024030020B781A12AF
:1005BA00050A1201C00207AF753750753800753940
:1005CA0000753A0012024030020B781912050A121D
:1005DA0001C00207AF753746753800753900753A9C
:1005EA000012024030020B781812050A1201C002EA
:1005FA0007AF75373C753800753900753A00120235
:10060A004030020B781712050A1201C00207AF75B3
:10061A003732753800753900753A001202403002D7
:10062A000B781612050A1201C00207AF7537287532
:10063A003800753900753A0012024030020B7815FD
:10064A0012050A1201C00207AF75371E7538007508
:10065A003900753A0012024030020B781412050A6A
:10066A001201C00207AF7537147538007539007565
:10067A003A0012024030020B781312050A1201C026
:10068A000207AF753713753800753900753A0012CD
:10069A00024030020B781212050A1201C00208B495
:1006AA00753712753800753900753A0012024030F4
:1006BA00020B781112050A1201C00208B47537112B
:1006CA00753800753900753A0012024030020B780D
:1006DA001012050A1201C00208B4753710753800E5
:1006EA00753900753A0012024030020B780F120574
:1006FA000A1201C00208B475370F7538007539003F
:10070A00753A0012024030020B780E12050A1201E5
:10071A00C00208B475370E753800753900753A008D
:10072A0012024030020B780D12050A1201C00208AB
:10073A00B475370D753800753900753A00120240E4
:10074A0030020B780C12050A1201C00208B4753780
:10075A000C753800753900753A0012024030020BE8
:10076A00780B12050A1201C00208B475370B7538E6
:10077A0000753900753A0012024030020B780A12ED
:10078A00050A1201C00208B475370A7538007539AE
:10079A0000753A0012024030020B780912050A125B
:1007AA0001C00208B4753709753800753900753A01
:1007BA000012024030020B780812050A1201C00228
:1007CA0008B4753708753800753900753A00120291
:1007DA004030020B780712050A1201C00208B475EC
:1007EA003707753800753900753A00120240300231
:1007FA000B780612050A1201C00208B4753706758D
:10080A003800753900753A0012024030020B78053B
:10081A0012050A1201C00208B47537057538007549
:10082A003900753A0012024030020B780412050AA8
:10083A001201C00208B4753704753800753900759D
:10084A003A0012024030020B780312050A1201C064
:10085A000208B4753703753800753900753A001205
:10086A00024030020B780212050A1201C00208B4D3
:10087A00753702753800753900753A001202403032
:10088A00020B780112050A1201C00208B475370179
:10089A00753800753900753A0012024030020B783B
:1008AA000012050A1201C00208B422536F616B3AA2
:1008BA00202020787878DF43202020005265666C5B
:1008CA006F773A20787878DF432020200054656DCE
:1008DA00703A202020787878DF4320202000546165
:1008EA00726765743A20787878DF43202020004FB9
:1008FA0056454E204F46462020202020202020000A
:10090A0000393700E45D019444024B4A02F6710350
:10091A009CD604433C04FCA105A7C8066132070221
:10092A00D507ADF9085DE109174A09B68A0A5F5089
:10093A000B0CD60BBA5C0C6CA50CFDA30DBBCC0E34
:10094A0069530F03D20FC1FB106AC21115E811CA0D
:10095A008E1278121327FB13D0C014772515355140
:10096A0015CD72168B8B172ADE17D605187ECC008A
:10097A00AB2600AFE700B70600AB2700A66500A6C6
:10098A006600B96500AB2700B96A00A1A300AB24D1
:10099A0000AFE800B969009F4000A8C600AD860014
:1009AA00AD8600B2490090FE00BE2900AD87009ACC
:1009BA007F00BE2900A8C700AB2600B4A600AD84FC
:1009CA0000AFE900A8C500A66500BE2C009821006A
:1009DA00BE19009F5300AB2700A8C7E58954F0440D
:1009EA0001F589758CEA758AE875F4EA75F2E8D238
:1009FA00A9D28C2220040132B2A63243CE3143CF8F
:100A0A0031D2A1D2A5C2A0C2A653890F43891075BB
:100A1A008DFC758B1575F5FC75F315D2ABC28E7509
:100A2A00A5A075A43A75AD8075AC0043A440E5A4B1
:100A3A0020E6FBD2AF2275C80075CDA975CC9A7590
:100A4A00CBA975CA9AE4F530F531F532D2ADD2CADE
:100A5A002279DE78A6D8FED9FA438780759852752E
:100A6A009B00759AF4759B1E22D282C28122C0E035
:100A7A00C0D0C205E54645474548601E74FF154685
:100A8A00B546071547B547021548D2A612042BF5F5
:100A9A00802480F5AD43A440800EC28ED2A5C2A6A2
:100AAA0075AD8043A440D205D0D0D0E032C2CFC0C9
:100ABA00E0C0D00530E53070020531E530B4FA18EF
:100ACA00E531B40013D200E4F530F5310532E532F0
:100ADA00B40505D201753200D0D0D0E03275817FDD
:100AEA00D2AF75E60075E70075D60075D70075CEEA
:100AFA000075CF00120A5B120A731209E5120A0581
:100B0A00120088120A40D292D293D294D295C290FD
:100B1A00C291C296C200C201C2037530007530008C
:100B2A007540967541F0020E2C3095FD120497B46B
:100B3A000051C296D290C0E07401141200BDD0E0F8
:100B4A00C083C082C0E09008F91200B2D0E0D0821F
:100B5A00D083781D12050A30C5FD3095FD12049721
:100B6A00B4002030000BC2001203F71204A31203D0
:100B7A009620C5E6C0027A32120039D00220C5DAC0
:100B8A00020E2C3095FD120497B40160D296C0E093
:100B9A007401141200BDD0E0C083C082C0E0900886
:100BAA00E81200B2D0E0D082D083753300753400E9
:100BBA007535007536008540331200DAC0E07408D6
:100BCA00141200BDD0E0C000A83C1200C4D000C07E
:100BDA0000A83B1200C4D000C0E07408141200BD83
:100BEA00D0E012034A781E12050A8003020C413033
:100BFA00000BC2001203F71204A31203963001027B
:100C0A00C2017533007534007535007536007537C5
:100C1A0000753800753900753A00854433854037C8
:100C2A00120240300202C2901204E33095FD12040F
:100C3A0097B40103020BF93095FD120497B4024DE3
:100C4A00781F12050A30000BC2001203F71204A320
:100C5A00120396300102C2017533007534007535EE
:100C6A0000753600753700753800753900753A0019
:100C7A0085443385403712024020020DD2963095C2
:100C8A00FD120497B4020680BCC29680F13095FD2D
:100C9A00120497B40344D29675330075340075353F
:100CAA00007536008541331200DAC0E07408141268
:100CBA0000BDD0E0C000A83C1200C4D000C000A80B
:100CCA003B1200C4D000C0E07408141200BDD0E08A
:100CDA0012034A782012050A8003020D2B30000BFA
:100CEA00C2001203F71204A3120396300102C201D2
:100CFA007533007534007535007536007537007523
:100D0A003800753900753A00854433854137120237
:100D1A0040300202D2903095FD120497B40302804B
:100D2A00BC3095FD120497B40450782102050A30AC
:100D3A00000BC2001203F71204A312039630010239
:100D4A00C201753300753400753500753600753784
:100D5A0000753800753900753A0085443385413786
:100D6A0012024020021020020DD2963095FD120484
:100D7A0097B4040680B9C29680F13095FD120497A3
:100D8A00B40525C296C0E07401141200BDD0E0C0BB
:100D9A0083C082C0E09008F91200B2D0E0D082D0BD
:100DAA0083782212050A80313095FD120497B40621
:100DBA0025C296C0E07401141200BDD0E0C083C001
:100DCA0082C0E09008F91200B2D0E0D082D08378D5
:100DDA002312050A8003020B3330000BC2001203F0
:100DEA00F71204A3120396300102C201753300758B
:100DFA003400753500753600753732753800753927
:100E0A0000753A00854433120240200202C2911250
:100E1A0004E33095FD120497B4050280BCB406B60B
:100E2A0080B7C290C0E07401141200BFD0E0C08342
:100E3A00C082C0E09008B51200B2D0E0D082D08360
:100E4A00C0E07401141200BDD0E0C083C082C0E0CB
:100E5A009008C61200B2D0E0D082D08375330075F4
:100E6A0034007535007536008540331200DAC0E06B
:100E7A007408141200BFD0E0C000A83C1200C4D00D
:100E8A0000C000A83B1200C4D000C0E074081412CD
:100E9A0000BFD0E012034A8541331200DAC0E07481
:100EAA0008141200BDD0E0C000A83C1200C4D00053
:100EBA00C000A83B1200C4D000C0E074081412009D
:100ECA00BDD0E012034A854033C0E0740B1412000F
:100EDA00BFD0E0C0E0740E120083D0E030C5FD2020
:100EEA008705E533B4F032208505E533B4783AC294
:100EFA0003C0E0740B141200BFD0E0C0E0740E12FD
:100F0A000083D0E020C5D8C0027A32120039D0025C
:100F1A0020C5CC853340020FDBC0E0740C1200837D
:100F2A00D0E00533200312804DC0E0740C12008318
:100F3A00D0E01533200302803D1200DAC0E07408C5
:100F4A00141200BFD0E0C000A83C1200C4D000C0F8
:100F5A0000A83B1200C4D000C0E07408141200BFFD
:100F6A00D0E012034AC0027A19120039D00230873F
:100F7A0056308558C2031200DAC0E0740814120011
:100F8A00BFD0E0C000A83C1200C4D000C000A83BFB
:100F9A001200C4D000C0E07408141200BFD0E012DE
:100FAA00034AC0E0740B141200BFD0E0C0E0740E14
:100FBA00120083D0E0C0027AFA120039D0023087D8
:100FCA0006308508020EE9D203020EE9D203020EA8
:100FDA00F1854133C0E0740B141200BDD0E0C0E0CB
:100FEA00740E120083D0E030C5FD208705E533B4C6
:100FFA00F032208505E533B4783AC203C0E0740BB9
:10100A00141200BDD0E0C0E0740E120083D0E020BC
:10101A00C5D8C0027A32120039D00220C5CC853335
:10102A00410210E6C0E0740C120083D0E0053320C0
:10103A000312804DC0E0740C120083D0E0153320F7
:10104A000302803D1200DAC0E07408141200BDD019
:10105A00E0C000A83C1200C4D000C000A83B1200A7
:10106A00C4D000C0E07408141200BDD0E012034AD4
:10107A00C0027A19120039D002308756308558C218
:10108A00031200DAC0E07408141200BDD0E0C000F8
:10109A00A83C1200C4D000C000A83B1200C4D00073
:1010AA00C0E07408141200BDD0E012034AC0E07414
:1010BA000B141200BDD0E0C0E0740E120083D0E021
:1010CA00C0027AFA120039D0023087063085080247
:1010DA000FF4D203020FF4D203020FFCC0E0740C27
:1010EA00120083D0E0C0E07401141200BFD0E0C047
:1010FA0083C082C0E09008D71200B2D0E0D082D07C
:10110A00831203F7C0E07408141200BFD0E0C000D5
:10111A00A83C1200C4D000C000A83B1200C4D000F2
:10112A00C0E07408141200BFD0E012034A020B3365
:00000001FF
