:03000000020524D2
:0100030032CA
:01000B0032C2
:0100130032BA
:01001B0032B2
:0100230032AA
:03002B000204FECE
:10002E00C00078B10000D8FCD00022C000C0017919
:10003E002D78A6D8FED9FADAF6D001D00022D2B3A6
:10004E0012002EC2B322A2E792B7A2E692B6A2E5A2
:10005E0092B5A2E492B412004C12002EA2E392B713
:10006E00A2E292B6A2E192B5A2E092B412004C22A4
:10007E00D2B2020054C2B2020054C2B374331200A0
:10008E008374331200837432120083742812008337
:10009E00740C1200837401120083C0027A021200E3
:1000AE0039D00222E493600612007EA380F6224429
:1000BE00404480020083C0E0E8C4540F4430120074
:0C00CE007EE8540F443012007ED0E02287
:1000DA00C0E0C0D0C000C001C002E4F53AF53BF56B
:1000EA003CF53DF53E7A20E535A2E779047832E61B
:1000FA0033F608D9FA7905783AE636D4F608D9F902
:10010A00DAE5D002D001D000D0D0D0E022C0E0C0E1
:10011A00D0C000C001C002E4F53AF53BF53CF53D1C
:10012A00F53E7A20E535A2E779047832E633F60817
:10013A00D9FA7905783AC0D0E6243320E70224D0E8
:10014A0020E30224FDD0D033F608D9EADAD6D00269
:10015A00D001D000D0D0D0E022C0E0C0D0C000C0D2
:10016A0001C0027A207905C3783EE613C0D030E791
:10017A000224D030E30224FDF618D0D0D9EC790459
:10018A007835E613F618D9FADADBD002D001D000B6
:10019A00D0D0D0E022C0E0C0D0E5322536F532E535
:1001AA00333537F533E5343538F534E5353539F552
:1001BA0035D0D0D0E022C0E0C0D0C3E5329536F5C4
:1001CA0032E5339537F533E5349538F534E5359529
:1001DA0039F535D0D0D0E022C0E0C0D0C3E53295A1
:1001EA0036E5339537E5349538E53595399201D0BA
:1001FA00D0D0E022C0E0C0D0C3E5369532E53795CD
:10020A0033E5389534E53995359201D0D0D0E022DE
:10021A00C0E0C0D0C201C3E53695327014E5379507
:10022A0033700EE53895347008E53995357002D289
:10023A0001D0D0D0E02212021A2001030201FE22CC
:10024A0012021A2001030201E222C0E0C0F0C0D06B
:10025A00C000C001C002C003E5328536F0A4F8A987
:10026A00F0E5338536F0A429F9E435F0FAE532856C
:10027A0037F0A429F9E5F03AFAE433FBE534853698
:10028A00F0A42AFAE5F03BFBE5338537F0A42AFA15
:10029A00E5F03BFBE5328538F0A42AFAE5F03BFBB2
:1002AA00E5358536F0A42BFBE5348537F0A42BFB26
:1002BA00E5338538F0A42BFBE5328539F0A42BFB16
:1002CA008B358A3489338832D003D002D001D000EA
:1002DA00D0D0D0F0D0E022C0E0C0D0C000C001C071
:1002EA0002C003C0047C20E4F8F9FAFBC3E5323308
:1002FA00F532E53333F533E53433F534E53533F5A3
:10030A0035E833F8E933F9EA33FAEB33FBC3E89516
:10031A0036E99537EA9538EB95394013E89536F87A
:10032A00E99537F9EA9538FAEB9539FB433201DC5E
:10033A00BBD004D003D002D001D000D0D0D0E0226C
:10034A00E53B54F0C4600302037FC0E0742012004E
:10035A007ED0E0E53B540F600302037FC0E07420C7
:10036A0012007ED0E0E53A54F0C47009C0E074206F
:10037A0012007ED0E022C0E0E8C4540F44301204D8
:10038A0002E8540F4430120402D0E022C000A83E12
:10039A00120380D000C000A83D120380D000C00024
:1003AA00A83C120380D000C000A83B120380D000F2
:1003BA00C000A83A120380D000740D120402740A15
:1003CA0012040222C2A078011203E978801203E91A
:1003DA00E95403F54278551203E98941D2A022C0B3
:1003EA00E079007A08E833F892A1D2A3A2A2E9330D
:1003FA00F9C2A3DAF0D0E0223099FDC299F5992228
:10040A00E4936006120402A380F622740020A30378
:10041A0023800324012320A2032380032401232011
:10042A00A1012224012285413285423375340075A7
:10043A00350075362975370075380075390012028E
:10044A00547536FA7537007538007539001202543A
:10045A007536E87537037538007539001202E112EE
:10046A0002E18532431200DA22536F616B3A20208F
:10047A0020787878DF43202020005265666C6F77F9
:10048A003A20787878DF432020200054656D703A4E
:10049A00202020787878DF4320202000546172677A
:1004AA0065743A20787878DF43202020004F56453B
:1004BA004E204F464620202020202020200075C8AC
:1004CA000075CDA975CC9A75CBA975CA9AE4F53091
:1004DA00F531D2ADC2CA2279DE78A6D8FED9FA435E
:1004EA008780759852759B00759AF4759B1E22D267
:1004FA00A2C2A322C2CFB290C0E0C0D00530E5307C
:10050A0070020531E530B4FA0CE531B40007D200C7
:10051A00E4F530F531D0D0D0E03275817FD2AF75B5
:10052A00E60075E70075CE0075CF001204E11204EB
:10053A00F91200881204C8C20075300075300075BF
:10054A003F967540F00207C230A4FD120415B400AC
:10055A0058D2A3C0E07401141200BFD0E0C083C017
:10056A0082C0E09004951200B2D0E0D082D083C05D
:10057A00E07401141200BDD0E0C083C082C0E090D4
:10058A0004B71200B2D0E0D082D08330C5FD30A4C7
:10059A00FD120415B4001220C5F4C0027A3212000A
:1005AA0039D00220C5E80207C230A4FD120415B4EE
:1005BA00015BC0E07401141200BDD0E0C083C082A8
:1005CA00C0E09004A61200B2D0E0D082D083753287
:1005DA0000753300753400753500853F321200DA34
:1005EA00C0E07408141200BDD0E0C000A83B12009D
:1005FA00C4D000C000A83A1200C4D000C0E07408F9
:10060A00141200BDD0E012034AD2958003020654A8
:10061A0030A4FD120415B401311203CE12043012B3
:10062A0003967532007533007534007535007536DA
:10063A0000753700753800753900854332853F36B5
:10064A001202403001CAC2A380C630A4FD120415AA
:10065A00B402371203CE12043012039675320075B3
:10066A0033007534007535007536007537007538F6
:10067A0000753900854332853F3612024020010554
:10068A00D295020654C29502065430A4FD120415EE
:10069A00B4037775320075330075340075350085FB
:1006AA0040321200DAC0E07408141200BDD0E0C073
:1006BA0000A83B1200C4D000C000A83A1200C4D05F
:1006CA0000C0E07408141200BDD0E012034AD295AB
:1006DA0030A4FD120415B403311203CE12043012F1
:1006EA00039675320075330075340075350075361A
:1006FA0000753700753800753900854332853F36F5
:10070A001202403001CAD2A380C630A4FD120415D9
:10071A00B404371203CE12043012039675320075F0
:10072A003300753400753500753600753700753835
:10073A0000753900854332853F3612024020010593
:10074A00D295020714C29502071430A4FD120415AB
:10075A00B40531C2951203CE1204301203967532D3
:10076A0000753300753400753500753632753700FB
:10077A007538007539008543321202402001CBC218
:10078A00A402075430A4FD120415B40628C29575B4
:10079A003200753300753400753500753632753799
:1007AA000075380075390085433212024020019ADB
:1007BA00C2A402078E020552C2A3C0E07401141239
:1007CA0000BFD0E0C083C082C0E09004731200B2C0
:1007DA00D0E0D082D083C0E07401141200BDD0E012
:1007EA00C083C082C0E09004841200B2D0E0D082FC
:1007FA00D083753200753300753400753500853F36
:10080A00321200DAC0E07408141200BFD0E0C0004F
:10081A00A83B1200C4D000C000A83A1200C4D000FD
:10082A00C0E07408141200BFD0E012034A854032B7
:10083A001200DAC0E07408141200BDD0E0C000A8AB
:10084A003B1200C4D000C000A83A1200C4D000C0B5
:10085A00E07408141200BDD0E012034A853F32C08A
:10086A00E0740B141200BFD0E0C0E0740E120083D3
:10087A00D0E030C5FD208505E532B4F03220870589
:10088A00E532B4783AC202C0E0740B141200BFD049
:10089A00E0C0E0740E120083D0E020C5D8C0027A0E
:1008AA0032120039D00220C5CC85323F020971C00C
:1008BA00E0740C120083D0E00532200212804DC091
:1008CA00E0740C120083D0E01532200202803D123F
:1008DA0000DAC0E07408141200BFD0E0C000A83BE0
:1008EA001200C4D000C000A83A1200C4D000C0E070
:1008FA007408141200BFD0E012034AC0027A191217
:10090A000039D002308556308758C2021200DAC048
:10091A00E07408141200BFD0E0C000A83B1200C463
:10092A00D000C000A83A1200C4D000C0E074081475
:10093A001200BFD0E012034AC0E0740B141200BFC9
:10094A00D0E0C0E0740E120083D0E0C0027AFA123E
:10095A000039D00230850630870802087FD20202A9
:10096A00087FD202020887854032C0E0740B141255
:10097A0000BDD0E0C0E0740E120083D0E030C5FDA7
:10098A00208505E532B4F032208705E532B4783A9D
:10099A00C202C0E0740B141200BDD0E0C0E0740EB5
:1009AA00120083D0E020C5D8C0027A32120039D0B2
:1009BA000220C5CC853240020A7CC0E0740C1200C9
:1009CA0083D0E00532200212804DC0E0740C120080
:1009DA0083D0E01532200202803D1200DAC0E074B2
:1009EA0008141200BDD0E0C000A83B1200C4D00019
:1009FA00C000A83A1200C4D000C0E0740814120063
:100A0A00BDD0E012034AC0027A19120039D002306E
:100A1A008556308758C2021200DAC0E074081412F0
:100A2A0000BDD0E0C000A83B1200C4D000C000A89E
:100A3A003A1200C4D000C0E07408141200BDD0E01D
:100A4A0012034AC0E0740B141200BDD0E0C0E07477
:100A5A000E120083D0E0C0027AFA120039D00230B6
:100A6A00850630870802098AD20202098AD202025E
:0E0A7A000992C0E0740C120083D0E002055215
:00000001FF
