:03000000020523D3
:0100030032CA
:01000B0032C2
:0100130032BA
:01001B0032B2
:0100230032AA
:03002B000204F1DB
:10002E00C00078B10000D8FCD00022C000C0017919
:10003E002D78A6D8FED9FADAF6D001D00022D2B3A6
:10004E0012002EC2B322A2E792B7A2E692B6A2E5A2
:10005E0092B5A2E492B412004C12002EA2E392B713
:10006E00A2E292B6A2E192B5A2E092B412004C22A4
:10007E00D2B2020054C2B2020054C2B374331200A0
:10008E008374331200837432120083742812008337
:10009E00740C1200837401120083C0027A021200E3
:1000AE0039D00222E493600612007EA380F6224429
:1000BE00404480020083C0E0E8C4540F4430120074
:0C00CE007EE8540F443012007ED0E02287
:1000DA00C0E0C0D0C000C001C002E4F53BF53CF569
:1000EA003DF53EF53F7A20E536A2E779047833E616
:1000FA0033F608D9FA7905783BE636D4F608D9F901
:10010A00DAE5D002D001D000D0D0D0E022C0E0C0E1
:10011A00D0C000C001C002E4F53BF53CF53DF53E18
:10012A00F53F7A20E536A2E779047833E633F60814
:10013A00D9FA7905783BC0D0E6243320E70224D0E7
:10014A0020E30224FDD0D033F608D9EADAD6D00269
:10015A00D001D000D0D0D0E022C0E0C0D0C000C0D2
:10016A0001C0027A207905C3783FE613C0D030E790
:10017A000224D030E30224FDF618D0D0D9EC790459
:10018A007836E613F618D9FADADBD002D001D000B5
:10019A00D0D0D0E022C0E0C0D0E5332537F533E532
:1001AA00343538F534E5353539F535E536353AF54A
:1001BA0036D0D0D0E022C0E0C0D0C3E5339537F5C1
:1001CA0033E5349538F534E5359539F535E5369521
:1001DA003AF536D0D0D0E022C0E0C0D0C3E533959E
:1001EA0037E5349538E5359539E536953A9202D0B2
:1001FA00D0D0E022C0E0C0D0C3E5379533E53895CA
:10020A0034E5399535E53A95369202D0D0D0E022D8
:10021A00C0E0C0D0C202C3E53795337014E5389503
:10022A0034700EE53995357008E53A95367002D284
:10023A0002D0D0D0E02212021A2002030201FE22CA
:10024A0012021A2002030201E222C0E0C0F0C0D06A
:10025A00C000C001C002C003E5338537F0A4F8A985
:10026A00F0E5348537F0A429F9E435F0FAE5338569
:10027A0038F0A429F9E5F03AFAE433FBE535853795
:10028A00F0A42AFAE5F03BFBE5348538F0A42AFA13
:10029A00E5F03BFBE5338539F0A42AFAE5F03BFBB0
:1002AA00E5368537F0A42BFBE5358538F0A42BFB22
:1002BA00E5348539F0A42BFBE533853AF0A42BFB12
:1002CA008B368A3589348833D003D002D001D000E6
:1002DA00D0D0D0F0D0E022C0E0C0D0C000C001C071
:1002EA0002C003C0047C20E4F8F9FAFBC3E5333307
:1002FA00F533E53433F534E53533F535E53633F59D
:10030A0036E833F8E933F9EA33FAEB33FBC3E89515
:10031A0037E99538EA9539EB953A4013E89537F875
:10032A00E99538F9EA9539FAEB953AFB433301DC5A
:10033A00BBD004D003D002D001D000D0D0D0E0226C
:10034A00E53C54F0C4600302037FC0E0742012004D
:10035A007ED0E0E53C540F600302037FC0E07420C6
:10036A0012007ED0E0E53B54F0C47009C0E074206E
:10037A0012007ED0E022C0E0E8C4540F44301204D8
:10038A0002E8540F4430120402D0E022C000A83F11
:10039A00120380D000C000A83E120380D000C00023
:1003AA00A83D120380D000C000A83C120380D000F0
:1003BA00C000A83B120380D000740D120402740A14
:1003CA0012040222C2A078011203E978801203E91A
:1003DA00E95403F54378551203E98942D2A022C0B1
:1003EA00E079007A08E833F892A1D2A3A2A2E9330D
:1003FA00F9C2A3DAF0D0E0223099FDC299F5992228
:10040A00E4936006120402A380F6227400A2A333C6
:10041A00A2A233A2A1332285423385433475350023
:10042A00753600753729753800753900753A001226
:10043A0002547537FA753800753900753A00120298
:10044A00547537E8753803753900753A001202E1B8
:10045A001202E18533441200DA22536F616B3A20AB
:10046A002020787878DF43202020005265666C6F60
:10047A00773A20787878DF432020200054656D7021
:10048A003A202020787878DF4320202000546172B7
:10049A006765743A20787878DF43202020004F5629
:1004AA00454E204F4646202020202020202000753F
:1004BA00C80075CDA975CC9A75CBA975CA9AE4F509
:1004CA0030F531F532D2ADD2CA2279DE78A6D8FE1D
:1004DA00D9FA438780759852759B00759AF4759B73
:1004EA001E22D2A2C2A322C2CFB290C0E0C0D005BF
:1004FA0030E53070020531E530B4FA18E531B40060
:10050A0013D200E4F530F5310532E532B40505D2EF
:10051A0001753200D0D0D0E03275817FD2AF75E656
:10052A000075E70075CE0075CF001204D41204ECF2
:10053A001200881204B9C200753000753000754087
:10054A00967541F002082130A4FD120415B4004C3E
:10055A00C295D2A3C0E07401141200BDD0E0C083DA
:10056A00C082C0E09004A81200B2D0E0D082D0834A
:10057A0030C5FD30A4FD120415B4002030000BC2B2
:10058A00001203CE12042112039620C5E6C0027A95
:10059A0032120039D00220C5DA02082130A4FD1235
:1005AA000415B4015BD295C0E07401141200BDD0E9
:1005BA00E0C083C082C0E09004971200B2D0E0D0BD
:1005CA0082D0837533007534007535007536008521
:1005DA0040331200DAC0E07408141200BDD0E0C043
:1005EA0000A83C1200C4D000C000A83B1200C4D02E
:1005FA0000C0E07408141200BDD0E012034A800360
:10060A0002065230000BC2001203CE12042112035A
:10061A0096300102C20175330075340075350075D4
:10062A003600753700753800753900753A0085440B
:10063A0033854037120240300202C2A330A4FD12B1
:10064A000415B4010302060D30A4FD120415B40208
:10065A004830000BC2001203CE1204211203963056
:10066A000102C20175330075340075350075360014
:10067A00753700753800753900753A008544338539
:10068A00403712024020020DD29530A4FD12041503
:10069A00B4020680BCC29580F130A4FD120415B4E0
:1006AA00033FD295753300753400753500753600F1
:1006BA008541331200DAC0E07408141200BDD0E09C
:1006CA00C000A83C1200C4D000C000A83B1200C45D
:1006DA00D000C0E07408141200BDD0E012034A80B2
:1006EA000302073230000BC2001203CE1204211299
:1006FA000396300102C20175330075340075350066
:10070A00753600753700753800753900753A0085F9
:10071A004433854037120240300202D2A330A4FD8E
:10072A00120415B4030280BC30A4FD120415B404EB
:10073A004B30000BC2001203CE1204211203963072
:10074A000102C20175330075340075350075360033
:10075A00753700753800753900753A008544338558
:10076A00403712024020021020020DD29530A4FD1B
:10077A00120415B4040680B9C29580F130A4FD12A2
:10078A000415B40520C295C0E07401141200BDD04E
:10079A00E0C083C082C0E09004A81200B2D0E0D0CA
:1007AA0082D083802C30A4FD120415B40620C29591
:1007BA00C0E07401141200BDD0E0C083C082C0E062
:1007CA009004A81200B2D0E0D082D0838003020540
:1007DA005130000BC2001203CE12042112039630CC
:1007EA000102C20175330075340075350075360093
:1007FA00753732753800753900753A0085443312F9
:10080A000240200202C2A430A4FD120415B405025B
:10081A0080BFB406B980BAC2A3C0E0740114120042
:10082A00BFD0E0C083C082C0E09004641200B2D09E
:10083A00E0D082D083C0E07401141200BDD0E0C0C1
:10084A0083C082C0E09004751200B2D0E0D082D09A
:10085A00837533007534007535007536008540336D
:10086A001200DAC0E07408141200BFD0E0C000A879
:10087A003C1200C4D000C000A83B1200C4D000C083
:10088A00E07408141200BFD0E012034A8541331203
:10089A0000DAC0E07408141200BDD0E0C000A83C21
:1008AA001200C4D000C000A83B1200C4D000C0E0AF
:1008BA007408141200BDD0E012034A854033C0E028
:1008CA00740B141200BFD0E0C0E0740E120083D083
:1008DA00E030C5FD208505E533B4F032208705E513
:1008EA0033B4783AC203C0E0740B141200BFD0E0EC
:1008FA00C0E0740E120083D0E020C5D8C0027A325C
:10090A00120039D00220C5CC8533400209D0C0E09C
:10091A00740C120083D0E00533200312804DC0E02E
:10092A00740C120083D0E01533200302803D1200BC
:10093A00DAC0E07408141200BFD0E0C000A83C126C
:10094A0000C4D000C000A83B1200C4D000C0E074AC
:10095A0008141200BFD0E012034AC0027A1912002A
:10096A0039D002308556308758C2031200DAC0E007
:10097A007408141200BFD0E0C000A83C1200C4D012
:10098A0000C000A83B1200C4D000C0E074081412D2
:10099A0000BFD0E012034AC0E0740B141200BFD0AB
:1009AA00E0C0E0740E120083D0E0C0027AFA1200AE
:1009BA0039D0023085063087080208DED2030208E1
:1009CA00DED2030208E6854133C0E0740B1412003C
:1009DA00BDD0E0C0E0740E120083D0E030C5FD2027
:1009EA008505E533B4F032208705E533B4783AC299
:1009FA0003C0E0740B141200BDD0E0C0E0740E1204
:100A0A000083D0E020C5D8C0027A32120039D00261
:100A1A0020C5CC853341020ADBC0E0740C12008386
:100A2A00D0E00533200312804DC0E0740C1200831D
:100A3A00D0E01533200302803D1200DAC0E07408CA
:100A4A00141200BDD0E0C000A83C1200C4D000C0FF
:100A5A0000A83B1200C4D000C0E07408141200BD04
:100A6A00D0E012034AC0027A19120039D002308546
:100A7A0056308758C2031200DAC0E0740814120014
:100A8A00BDD0E0C000A83C1200C4D000C000A83B02
:100A9A001200C4D000C0E07408141200BDD0E012E5
:100AAA00034AC0E0740B141200BDD0E0C0E0740E1B
:100ABA00120083D0E0C0027AFA120039D0023085DF
:100ACA00063087080209E9D2030209E9D2030209BA
:100ADA00F1C0E0740C120083D0E0C0E0740114127B
:100AEA0000BFD0E0C083C082C0E09004861200B28A
:100AFA00D0E0D082D0831203CE12042112039602D0
:020B0A00055193
:00000001FF
