:0300000002057680
:0100030032CA
:01000B0032C2
:0100130032BA
:01001B0032B2
:0100230032AA
:03002B0002054487
:10002E00C00078B10000D8FCD00022C000C0017919
:10003E002D78A6D8FED9FADAF6D001D00022D2B3A6
:10004E0012002EC2B322A2E792B7A2E692B6A2E5A2
:10005E0092B5A2E492B412004C12002EA2E392B713
:10006E00A2E292B6A2E192B5A2E092B412004C22A4
:10007E00D2B2020054C2B2020054C2B374331200A0
:10008E008374331200837432120083742812008337
:10009E00740C1200837401120083C0027A021200E3
:1000AE0039D00222E493600612007EA380F6224429
:1000BE00404480020083C0E0E8C4540F4430120074
:0C00CE007EE8540F443012007ED0E02287
:1000DA00C0E0C0D0C000C001C002E4F53BF53CF569
:1000EA003DF53EF53F7A20E536A2E779047833E616
:1000FA0033F608D9FA7905783BE636D4F608D9F901
:10010A00DAE5D002D001D000D0D0D0E022C0E0C0E1
:10011A00D0C000C001C002E4F53BF53CF53DF53E18
:10012A00F53F7A20E536A2E779047833E633F60814
:10013A00D9FA7905783BC0D0E6243320E70224D0E7
:10014A0020E30224FDD0D033F608D9EADAD6D00269
:10015A00D001D000D0D0D0E022C0E0C0D0C000C0D2
:10016A0001C0027A207905C3783FE613C0D030E790
:10017A000224D030E30224FDF618D0D0D9EC790459
:10018A007836E613F618D9FADADBD002D001D000B5
:10019A00D0D0D0E022C0E0C0D0E5332537F533E532
:1001AA00343538F534E5353539F535E536353AF54A
:1001BA0036D0D0D0E022C0E0C0D0C3E5339537F5C1
:1001CA0033E5349538F534E5359539F535E5369521
:1001DA003AF536D0D0D0E022C0E0C0D0C3E533959E
:1001EA0037E5349538E5359539E536953A9202D0B2
:1001FA00D0D0E022C0E0C0D0C3E5379533E53895CA
:10020A0034E5399535E53A95369202D0D0D0E022D8
:10021A00C0E0C0D0C202C3E53795337014E5389503
:10022A0034700EE53995357008E53A95367002D284
:10023A0002D0D0D0E02212021A2002030201FE22CA
:10024A0012021A2002030201E222C0E0C0F0C0D06A
:10025A00C000C001C002C003E5338537F0A4F8A985
:10026A00F0E5348537F0A429F9E435F0FAE5338569
:10027A0038F0A429F9E5F03AFAE433FBE535853795
:10028A00F0A42AFAE5F03BFBE5348538F0A42AFA13
:10029A00E5F03BFBE5338539F0A42AFAE5F03BFBB0
:1002AA00E5368537F0A42BFBE5358538F0A42BFB22
:1002BA00E5348539F0A42BFBE533853AF0A42BFB12
:1002CA008B368A3589348833D003D002D001D000E6
:1002DA00D0D0D0F0D0E022C0E0C0D0C000C001C071
:1002EA0002C003C0047C20E4F8F9FAFBC3E5333307
:1002FA00F533E53433F534E53533F535E53633F59D
:10030A0036E833F8E933F9EA33FAEB33FBC3E89515
:10031A0037E99538EA9539EB953A4013E89537F875
:10032A00E99538F9EA9539FAEB953AFB433301DC5A
:10033A00BBD004D003D002D001D000D0D0D0E0226C
:10034A00E53C54F0C4600302037FC0E0742012004D
:10035A007ED0E0E53C540F600302037FC0E07420C6
:10036A0012007ED0E0E53B54F0C47009C0E074206E
:10037A0012007ED0E022C0E0E8C4540F44301204D8
:10038A002BE8540F443012042BD0E022C0E074084A
:10039A00141200BFD0E0C000A83C1200C4D000C0B4
:1003AA0000A83B1200C4D000C0E07408141200BFB9
:1003BA00D0E012034AC000A83F120380D000C00058
:1003CA00A83E120380D000C000A83D120380D000CE
:1003DA00C000A83C120380D000C000A83B120380D2
:1003EA00D000740D12042B740A12042B22C2A078B6
:1003FA00011204127880120412E95403F543785565
:10040A001204128942D2A022C0E079007A08E833A5
:10041A00F892A1D2A3A2A2E933F9C2A3DAF0D0E0FA
:10042A00223099FDC299F59922E493600612042BB1
:10043A00A380F6227400A29433A29333A2923322A9
:10044A008542338543347535007536007537007536
:10045A003810753900753A001202547537A075388C
:10046A0086753901753A001202547537FF753803DB
:10047A00753900753A001202E175375775380D75EE
:10048A003900753A001202E175379F7538017539DE
:10049A0000753A001202E175371475380075390093
:1004AA00753A0012019F8533441200DA22536F61B4
:1004BA006B3A202020787878DF432020200052658C
:1004CA00666C6F773A20787878DF432020200054D2
:1004DA00656D703A202020787878DF43202020004C
:1004EA005461726765743A20787878DF4320202057
:1004FA00004F56454E204F464620202020202020DF
:10050A00200075C80075CDA975CC9A75CBA975CA96
:10051A009AE4F530F531F532D2ADD2CA2279DE78D5
:10052A00A6D8FED9FA438780759852759B00759AAA
:10053A00F4759B1E22D2A2C2A322C2CFB290C0E0FF
:10054A00C0D00530E53070020531E530B4FA18E55F
:10055A0031B40013D200E4F530F5310532E532B496
:10056A000505D201753200D0D0D0E03275817FD234
:10057A00AF75E60075E70075CE0075CF0012052746
:10058A0012053F12008812050CD292D293D294D24D
:10059A0095C2A3C2A4C296C200C201C203753000AA
:1005AA007530007540967541F00208863095FD1247
:1005BA00043EB4004CC296D2A3C0E07401141200E7
:1005CA00BDD0E0C083C082C0E09004FB1200B2D06C
:1005DA00E0D082D08330C5FD3095FD12043EB400D0
:1005EA002030000BC2001203F712044A12039620AD
:1005FA00C5E6C0027A32120039D00220C5DA0208F2
:10060A00863095FD12043EB4015BD296C0E07401B7
:10061A00141200BDD0E0C083C082C0E09004EA1288
:10062A0000B2D0E0D082D0837533007534007535BE
:10063A00007536008540331200DAC0E074081412DF
:10064A0000BDD0E0C000A83C1200C4D000C000A881
:10065A003B1200C4D000C0E07408141200BDD0E000
:10066A0012034A80030206B730000BC2001203F7D6
:10067A0012044A120396300102C20175330075341E
:10068A000075350075360075370075380075390004
:10069A00753A00854433854037120240300202C25F
:1006AA00A33095FD12043EB401030206723095FD93
:1006BA0012043EB4024830000BC2001203F71204BF
:1006CA004A120396300102C201753300753400756F
:1006DA003500753600753700753800753900753A7A
:1006EA000085443385403712024020020DD29630ED
:1006FA0095FD12043EB4020680BCC29680F1309584
:10070A00FD12043EB4033FD296753300753400756A
:10071A0035007536008541331200DAC0E0740814DA
:10072A001200BDD0E0C000A83C1200C4D000C00036
:10073A00A83B1200C4D000C0E07408141200BDD057
:10074A00E012034A800302079730000BC20012032B
:10075A00F712044A120396300102C201753300757A
:10076A0034007535007536007537007538007539EF
:10077A0000753A0085443385403712024030020240
:10078A00D2A33095FD12043EB4030280BC3095FD1D
:10079A0012043EB4044B30000BC2001203F71204D9
:1007AA004A120396300102C201753300753400758E
:1007BA003500753600753700753800753900753A99
:1007CA000085443385403712024020021020020D72
:1007DA00D2963095FD12043EB4040680B9C29680C2
:1007EA00F13095FD12043EB40520C296C0E07401B2
:1007FA00141200BDD0E0C083C082C0E09004FB1296
:10080A0000B2D0E0D082D083802C3095FD12043E15
:10081A00B40620C296C0E07401141200BDD0E0C034
:10082A0083C082C0E09004FB1200B2D0E0D082D034
:10083A008380030205B630000BC2001203F71204CC
:10084A004A120396300102C20175330075340075ED
:10085A003500753600753732753800753900753AC6
:10086A0000854433120240200202C2A43095FD12D0
:10087A00043EB4050280BFB406B980BAC2A3C0E080
:10088A007401141200BFD0E0C083C082C0E090049B
:10089A00B71200B2D0E0D082D083C0E07401141243
:1008AA0000BDD0E0C083C082C0E09004C81200B28C
:1008BA00D0E0D082D0837533007534007535007569
:1008CA0036008540331200DAC0E07408141200BF03
:1008DA00D0E0C000A83C1200C4D000C000A83B125F
:1008EA0000C4D000C0E07408141200BFD0E01203A4
:1008FA004A8541331200DAC0E07408141200BDD0F0
:10090A00E0C000A83C1200C4D000C000A83B1200FE
:10091A00C4D000C0E07408141200BDD0E012034A2B
:10092A00854033C0E0740B141200BFD0E0C0E074FD
:10093A000E120083D0E030C5FD208205E533B4F005
:10094A0032208605E533B4783AC203C0E0740B144A
:10095A001200BFD0E0C0E0740E120083D0E020C5C0
:10096A00D8C0027A32120039D00220C5CC85334071
:10097A00020A35C0E0740C120083D0E0053320036C
:10098A0012804DC0E0740C120083D0E015332003AE
:10099A0002803D1200DAC0E07408141200BFD0E0F1
:1009AA00C000A83C1200C4D000C000A83B1200C47A
:1009BA00D000C0E07408141200BFD0E012034AC08D
:1009CA00027A19120039D002308256308658C20390
:1009DA001200DAC0E07408141200BFD0E0C000A808
:1009EA003C1200C4D000C000A83B1200C4D000C012
:1009FA00E07408141200BFD0E012034AC0E0740B7E
:100A0A00141200BFD0E0C0E0740E120083D0E0C020
:100A1A00027AFA120039D0023082063086080209B8
:100A2A0043D203020943D20302094B854133C0E092
:100A3A00740B141200BDD0E0C0E0740E120083D013
:100A4A00E030C5FD208205E533B4F032208605E5A5
:100A5A0033B4783AC203C0E0740B141200BDD0E07C
:100A6A00C0E0740E120083D0E020C5D8C0027A32EA
:100A7A00120039D00220C5CC853341020B40C0E0B8
:100A8A00740C120083D0E00533200312804DC0E0BD
:100A9A00740C120083D0E01533200302803D12004B
:100AAA00DAC0E07408141200BDD0E0C000A83C12FD
:100ABA0000C4D000C000A83B1200C4D000C0E0743B
:100ACA0008141200BDD0E012034AC0027A191200BB
:100ADA0039D002308256308658C2031200DAC0E09A
:100AEA007408141200BDD0E0C000A83C1200C4D0A3
:100AFA0000C000A83B1200C4D000C0E07408141261
:100B0A0000BDD0E012034AC0E0740B141200BDD03D
:100B1A00E0C0E0740E120083D0E0C0027AFA12003C
:100B2A0039D002308206308608020A4ED203020AFF
:100B3A004ED203020A56C0E0740C120083D0E0C001
:100B4A00E07401141200BFD0E0C083C082C0E090FC
:100B5A0004D91200B2D0E0D082D0831203F7C0E0E9
:100B6A007408141200BFD0E0C000A83C1200C4D020
:100B7A0000C000A83B1200C4D000C0E074081412E0
:0A0B8A0000BFD0E012034A0205B6D6
:00000001FF
