:03000000020AE110
:0100030032CA
:01000B0032C2
:0100130032BA
:03001B00020A7462
:0100230032AA
:03002B00020AB115
:10002E00C00078B10000D8FCD00022C000C0017919
:10003E002D78A6D8FED9FADAF6D001D00022D2B3A6
:10004E0012002EC2B322A2E792B7A2E692B6A2E5A2
:10005E0092B5A2E492B412004C12002EA2E392B713
:10006E00A2E292B6A2E192B5A2E092B412004C22A4
:10007E00D2B2020054C2B2020054C2B374331200A0
:10008E008374331200837432120083742812008337
:10009E00740C1200837401120083C0027A021200E3
:1000AE0039D00222E493600612007EA380F6224429
:1000BE00404480020083C0E0E8C4540F4430120074
:0C00CE007EE8540F443012007ED0E02287
:1000DA00C0E0C0D0C000C001C002E4F53BF53CF569
:1000EA003DF53EF53F7A20E536A2E779047833E616
:1000FA0033F608D9FA7905783BE636D4F608D9F901
:10010A00DAE5D002D001D000D0D0D0E022C0E0C0E1
:10011A00D0C000C001C002E4F53BF53CF53DF53E18
:10012A00F53F7A20E536A2E779047833E633F60814
:10013A00D9FA7905783BC0D0E6243320E70224D0E7
:10014A0020E30224FDD0D033F608D9EADAD6D00269
:10015A00D001D000D0D0D0E022C0E0C0D0C000C0D2
:10016A0001C0027A207905C3783FE613C0D030E790
:10017A000224D030E30224FDF618D0D0D9EC790459
:10018A007836E613F618D9FADADBD002D001D000B5
:10019A00D0D0D0E022C0E0C0D0E5332537F533E532
:1001AA00343538F534E5353539F535E536353AF54A
:1001BA0036D0D0D0E022C0E0C0D0C3E5339537F5C1
:1001CA0033E5349538F534E5359539F535E5369521
:1001DA003AF536D0D0D0E022C0E0C0D0C3E533959E
:1001EA0037E5349538E5359539E536953A9202D0B2
:1001FA00D0D0E022C0E0C0D0C3E5379533E53895CA
:10020A0034E5399535E53A95369202D0D0D0E022D8
:10021A00C0E0C0D0C202C3E53795337014E5389503
:10022A0034700EE53995357008E53A95367002D284
:10023A0002D0D0D0E02212021A2002030201FE22CA
:10024A0012021A2002030201E222C0E0C0F0C0D06A
:10025A00C000C001C002C003E5338537F0A4F8A985
:10026A00F0E5348537F0A429F9E435F0FAE5338569
:10027A0038F0A429F9E5F03AFAE433FBE535853795
:10028A00F0A42AFAE5F03BFBE5348538F0A42AFA13
:10029A00E5F03BFBE5338539F0A42AFAE5F03BFBB0
:1002AA00E5368537F0A42BFBE5358538F0A42BFB22
:1002BA00E5348539F0A42BFBE533853AF0A42BFB12
:1002CA008B368A3589348833D003D002D001D000E6
:1002DA00D0D0D0F0D0E022C0E0C0D0C000C001C071
:1002EA0002C003C0047C20E4F8F9FAFBC3E5333307
:1002FA00F533E53433F534E53533F535E53633F59D
:10030A0036E833F8E933F9EA33FAEB33FBC3E89515
:10031A0037E99538EA9539EB953A4013E89537F875
:10032A00E99538F9EA9539FAEB953AFB433301DC5A
:10033A00BBD004D003D002D001D000D0D0D0E0226C
:10034A00E53C54F0C4600302037FC0E0742012004D
:10035A007ED0E0E53C540F600302037FC0E07420C6
:10036A0012007ED0E0E53B54F0C47009C0E074206E
:10037A0012007ED0E022C0E0E8C4540F44301204D8
:10038A002BE8540F443012042BD0E022C0E074084A
:10039A00141200BFD0E0C000A83C1200C4D000C0B4
:1003AA0000A83B1200C4D000C0E07408141200BFB9
:1003BA00D0E012034AC000A83F120380D000C00058
:1003CA00A83E120380D000C000A83D120380D000CE
:1003DA00C000A83C120380D000C000A83B120380D2
:1003EA00D000740D12042B740A12042B22C28478D2
:1003FA00011204127880120412E95403F543785565
:10040A001204128942D28422C0E079007A08E833C1
:10041A00F89283D281A282E933F9C281DAF0D0E07C
:10042A00223099FDC299F599223392A4D2A0A2A1B1
:10043A00C2A092E03392A4D2A0A2A1C2A092E033B9
:10044A0092A4D2A0A2A1C2A092E03392A4D2A0A266
:10045A00A1C2A092E03392A4D2A0A2A1C2A092E02B
:10046A003392A4D2A0A2A1C2A092E03392A4D2A0B5
:10047A00A2A1C2A092E03392A4D2A0A2A1C2A09249
:10048A00E022E493600612042BA380F6227400A2F1
:10049A009433A29333A2923322854233854334752F
:1004AA00350075360075376775389C753900753AA9
:1004BA000012025475371C7538A2753900753A0056
:1004CA001202E1753716753800753900753A00124F
:1004DA00019F8533441200DA2275330075340075A2
:1004EA0035007536008544337537327538007539ED
:1004FA0000753A00120240200203C29122D29122D0
:10050A00C2A5740312043390091AE875F003A425EE
:10051A0082F582E5F03583F583E493120433A3E48C
:10052A0093120433A3E49312043390098FE875F00D
:10053A0003A42582F582E5F03583F583E493F54734
:10054A00A3E493F546A3E493F545D2A6D28EC2045A
:10055A0030000BC2001203F71204A31203963004F0
:10056A00EF22753300753400753500753600854401
:10057A00337537C8753800753900753A001202406C
:10058A0030020B781C12050A1201C00205B5753734
:10059A0064753800753900753A0012024030020B52
:1005AA00781B12050A1201C00205B575375A75384B
:1005BA0000753900753A0012024030020B781A129F
:1005CA00050A1201C00207BF753750753800753920
:1005DA0000753A0012024030020B781912050A120D
:1005EA0001C00207BF753746753800753900753A7C
:1005FA000012024030020B781812050A1201C002DA
:10060A0007BF75373C753800753900753A00120214
:10061A004030020B781712050A1201C00207BF7593
:10062A003732753800753900753A001202403002C7
:10063A000B781612050A1201C00207BF7537287512
:10064A003800753900753A0012024030020B7815ED
:10065A0012050A1201C00207BF75371E75380075E8
:10066A003900753A0012024030020B781412050A5A
:10067A001201C00207BF7537147538007539007545
:10068A003A0012024030020B781312050A1201C016
:10069A000207BF753713753800753900753A0012AD
:1006AA00024030020B781212050A1201C00208C475
:1006BA00753712753800753900753A0012024030E4
:1006CA00020B781112050A1201C00208C47537110B
:1006DA00753800753900753A0012024030020B78FD
:1006EA001012050A1201C00208C4753710753800C5
:1006FA00753900753A0012024030020B780F120564
:10070A000A1201C00208C475370F7538007539001E
:10071A00753A0012024030020B780E12050A1201D5
:10072A00C00208C475370E753800753900753A006D
:10073A0012024030020B780D12050A1201C002089B
:10074A00C475370D753800753900753A00120240C4
:10075A0030020B780C12050A1201C00208C4753760
:10076A000C753800753900753A0012024030020BD8
:10077A00780B12050A1201C00208C475370B7538C6
:10078A0000753900753A0012024030020B780A12DD
:10079A00050A1201C00208C475370A75380075398E
:1007AA0000753A0012024030020B780912050A124B
:1007BA0001C00208C4753709753800753900753AE1
:1007CA000012024030020B780812050A1201C00218
:1007DA0008C4753708753800753900753A00120271
:1007EA004030020B780712050A1201C00208C475CC
:1007FA003707753800753900753A00120240300221
:10080A000B780612050A1201C00208C4753706756C
:10081A003800753900753A0012024030020B78052B
:10082A0012050A1201C00208C47537057538007529
:10083A003900753A0012024030020B780412050A98
:10084A001201C00208C4753704753800753900757D
:10085A003A0012024030020B780312050A1201C054
:10086A000208C4753703753800753900753A0012E5
:10087A00024030020B780212050A1201C00208C4B3
:10088A00753702753800753900753A001202403022
:10089A00020B780112050A1201C00208C475370159
:1008AA00753800753900753A0012024030020B782B
:1008BA000012050A1201C00208C422536F616B3A82
:1008CA00202020787878DF43202020005265666C4B
:1008DA006F773A20787878DF432020200054656DBE
:1008EA00703A202020787878DF4320202000546155
:1008FA00726765743A20787878DF43202020004FA9
:10090A0056454E204F4646202020202020202000F9
:10091A0000002B0027B30094FF00FF4B016AEF0190
:10092A00D7A502474402B48F0329FE03914103FD70
:10093A009B0466D404E2140552E105D0ED06546422
:10094A0006CAFF074CA307D1C4084AB008CC51090C
:10095A00444509BB410A30B10AA33A0B2D960BA3B1
:10096A00050C18740C8DE30D1CF50DAA170E1F87C4
:10097A000EBA3E0F2CC50FCDCE1051C210D2D411D3
:10098A004870118A64002788006D4C006A4C006B1D
:10099A00A4006CB6006F9F006D4B00756F00674333
:1009AA00006C5A006939007B400070CD007E0C0053
:1009BA00837700769B0081A40085210078EC008172
:1009CA00A10077F40076FC007570007289008A5CD9
:1009DA0000756F00756F00756F008F12008D220011
:1009EA007570009AB700728700A1090083F400812C
:1009FA001200759C0041F443CE3143CF31D2A1D2CB
:100A0A00A5C2A0C2A653890F438910758DFC758BA8
:100A1A001575F5FC75F315D2ABC28E75A5A075A434
:100A2A003A75AD8075AC0043A440E5A420E6FBD23C
:100A3A00AF2275C80075CDA975CC9A75CBA975CAB0
:100A4A009AE4F530F531F532D2ADD2CA2279DE78A0
:100A5A00A6D8FED9FA438780759852759B00759A75
:100A6A00F4759B1E22D282C28122C0E0C0D0E54525
:100A7A0045464547601E74FF1545B545071546B5F9
:100A8A0046021547D2A6120433F5802480F5AD43F9
:100A9A00A440800EC28ED2A5C2A675AD8043A440E2
:100AAA00D204D0D0D0E032C2CFC0E0C0D00530E509
:100ABA003070020531E530B4E818E531B40313D2D9
:100ACA0000E4F530F5310532E532B40505D2017599
:100ADA003200D0D0D0E03275817FD2AF75E6007592
:100AEA00E70075D60075D70075CE0075CF00120ADB
:100AFA0057120A6F120088120A01120A3CD292D2C5
:100B0A0093D294D295C290C291C296C200C201C237
:100B1A0003D2047530007530007540967541F002B5
:100B2A000E253095FD120497B40051C296D290C09A
:100B3A00E07401141200BDD0E0C083C082C0E0900E
:100B4A0009091200B2D0E0D082D083781E12050AB9
:100B5A0030C5FD3095FD120497B4002030000BC259
:100B6A00001203F71204A312039620C5E6C0027A04
:100B7A0032120039D00220C5DA020E253095FD1254
:100B8A000497B40160D296C0E07401141200BDD07B
:100B9A00E0C083C082C0E09008F81200B2D0E0D072
:100BAA0082D083753300753400753500753600853B
:100BBA0040331200DAC0E07408141200BDD0E0C05D
:100BCA0000A83C1200C4D000C000A83B1200C4D048
:100BDA0000C0E07408141200BDD0E012034A781E67
:100BEA0012050A8003020C3A30000BC2001203F706
:100BFA001204A3120396300102C201753300753440
:100C0A00007535007536007537007538007539007E
:100C1A00753A00854433854037120240300202C2D9
:100C2A00901204E33095FD120497B40103020BF20B
:100C3A003095FD120497B4024D781F12050A300050
:100C4A000BC2001203F71204A3120396300102C268
:100C5A000175330075340075350075360075370037
:100C6A00753800753900753A008544338540371266
:100C7A00024020020DD2963095FD120497B4020666
:100C8A0080BCC29680F13095FD120497B40344D219
:100C9A009675330075340075350075360085413315
:100CAA001200DAC0E07408141200BDD0E0C000A837
:100CBA003C1200C4D000C000A83B1200C4D000C03F
:100CCA00E07408141200BDD0E012034A782012051D
:100CDA000A8003020D2430000BC2001203F712042B
:100CEA00A3120396300102C20175330075340075F0
:100CFA003500753600753700753800753900753A54
:100D0A0000854433854137120240300202D29030C6
:100D1A0095FD120497B4030280BC3095FD12049726
:100D2A00B40450782102050A30000BC2001203F7FE
:100D3A001204A3120396300102C2017533007534FE
:100D4A00007535007536007537007538007539003D
:100D5A00753A00854433854137120240200210203B
:100D6A00020DD2963095FD120497B4040680B9C2DA
:100D7A009680F13095FD120497B40525C296C0E01D
:100D8A007401141200BDD0E0C083C082C0E0900993
:100D9A00091200B2D0E0D082D083782212050A80EC
:100DAA00313095FD120497B40625C296C0E074014D
:100DBA00141200BDD0E0C083C082C0E090090912BD
:100DCA0000B2D0E0D082D083782312050A800302D1
:100DDA000B2C30000BC2001203F71204A312039665
:100DEA00300102C20175330075340075350075365D
:100DFA0000753732753800753900753A0085443305
:100E0A00120240200202C2911204E33095FD12043C
:100E1A0097B4050280BCB406B680B7C2CAC290C0F5
:100E2A00E07401141200BFD0E0C083C082C0E09019
:100E3A0008C51200B2D0E0D082D083C0E074011499
:100E4A001200BDD0E0C083C082C0E09008D6120074
:100E5A00B2D0E0D082D08375330075340075350086
:100E6A007536008540331200DAC0E07408141200A7
:100E7A00BFD0E0C000A83C1200C4D000C000A83B0C
:100E8A001200C4D000C0E07408141200BFD0E012EF
:100E9A00034A8541331200DAC0E07408141200BD17
:100EAA00D0E0C000A83C1200C4D000C000A83B1289
:100EBA0000C4D000C0E07408141200BDD0E01203D0
:100ECA004A854033C0E0740B141200BFD0E0C0E082
:100EDA00740E120083D0E030C5FD208705E533B4D7
:100EEA00F032208505E533B4783AC203C0E0740BCA
:100EFA00141200BFD0E0C0E0740E120083D0E020CC
:100F0A00C5D8C0027A32120039D00220C5CC853346
:100F1A0040020FD6C0E0740C120083D0E0053320E3
:100F2A000312804DC0E0740C120083D0E015332008
:100F3A000302803D1200DAC0E07408141200BFD028
:100F4A00E0C000A83C1200C4D000C000A83B1200B8
:100F5A00C4D000C0E07408141200BFD0E012034AE3
:100F6A00C0027A19120039D002308756308558C229
:100F7A00031200DAC0E07408141200BFD0E0C00007
:100F8A00A83C1200C4D000C000A83B1200C4D00084
:100F9A00C0E07408141200BFD0E012034AC0E07423
:100FAA000B141200BFD0E0C0E0740E120083D0E030
:100FBA00C0027AFA120039D0023087063085080258
:100FCA000EE4D203020EE4D203020EEC854133C0D2
:100FDA00E0740B141200BDD0E0C0E0740E1200835E
:100FEA00D0E030C5FD208705E533B4F03220850511
:100FFA00E533B4783AC203C0E0740B141200BDD0D2
:10100A00E0C0E0740E120083D0E020C5D8C0027A96
:10101A0032120039D00220C5CC8533410210E1C01A
:10102A00E0740C120083D0E00533200312804DC017
:10103A00E0740C120083D0E01533200302803D12C5
:10104A0000DAC0E07408141200BDD0E0C000A83C69
:10105A001200C4D000C000A83B1200C4D000C0E0F7
:10106A007408141200BDD0E012034AC0027A1912A1
:10107A000039D002308756308558C2031200DAC0D0
:10108A00E07408141200BDD0E0C000A83C1200C4ED
:10109A00D000C000A83B1200C4D000C0E0740814FD
:1010AA001200BDD0E012034AC0E0740B141200BD56
:1010BA00D0E0C0E0740E120083D0E0C0027AFA12C7
:1010CA000039D002308706308508020FEFD20302BA
:1010DA000FEFD203020FF7C0E0740C120083D0E0C6
:1010EA00C0E07401141200BFD0E0C083C082C0E027
:1010FA009008E71200B2D0E0D082D0831203F7C082
:10110A00E07408141200BFD0E0C000A83C1200C46A
:10111A00D000C000A83B1200C4D000C0E07408147C
:0D112A001200BFD0E012034AD2CA020B2C03
:00000001FF
