:03000000020735BF
:0100030032CA
:01000B0032C2
:0100130032BA
:03001B00020601D9
:0100230032AA
:03002B00020705C4
:10002E00C00078B10000D8FCD00022C000C0017919
:10003E002D78A6D8FED9FADAF6D001D00022D2B3A6
:10004E0012002EC2B322A2E792B7A2E692B6A2E5A2
:10005E0092B5A2E492B412004C12002EA2E392B713
:10006E00A2E292B6A2E192B5A2E092B412004C22A4
:10007E00D2B2020054C2B2020054C2B374331200A0
:10008E008374331200837432120083742812008337
:10009E00740C1200837401120083C0027A021200E3
:1000AE0039D00222E493600612007EA380F6224429
:1000BE00404480020083C0E0E8C4540F4430120074
:0C00CE007EE8540F443012007ED0E02287
:1000DA00C0E0C0D0C000C001C002E4F53BF53CF569
:1000EA003DF53EF53F7A20E536A2E779047833E616
:1000FA0033F608D9FA7905783BE636D4F608D9F901
:10010A00DAE5D002D001D000D0D0D0E022C0E0C0E1
:10011A00D0C000C001C002E4F53BF53CF53DF53E18
:10012A00F53F7A20E536A2E779047833E633F60814
:10013A00D9FA7905783BC0D0E6243320E70224D0E7
:10014A0020E30224FDD0D033F608D9EADAD6D00269
:10015A00D001D000D0D0D0E022C0E0C0D0C000C0D2
:10016A0001C0027A207905C3783FE613C0D030E790
:10017A000224D030E30224FDF618D0D0D9EC790459
:10018A007836E613F618D9FADADBD002D001D000B5
:10019A00D0D0D0E022C0E0C0D0E5332537F533E532
:1001AA00343538F534E5353539F535E536353AF54A
:1001BA0036D0D0D0E022C0E0C0D0C3E5339537F5C1
:1001CA0033E5349538F534E5359539F535E5369521
:1001DA003AF536D0D0D0E022C0E0C0D0C3E533959E
:1001EA0037E5349538E5359539E536953A9202D0B2
:1001FA00D0D0E022C0E0C0D0C3E5379533E53895CA
:10020A0034E5399535E53A95369202D0D0D0E022D8
:10021A00C0E0C0D0C202C3E53795337014E5389503
:10022A0034700EE53995357008E53A95367002D284
:10023A0002D0D0D0E02212021A2002030201FE22CA
:10024A0012021A2002030201E222C0E0C0F0C0D06A
:10025A00C000C001C002C003E5338537F0A4F8A985
:10026A00F0E5348537F0A429F9E435F0FAE5338569
:10027A0038F0A429F9E5F03AFAE433FBE535853795
:10028A00F0A42AFAE5F03BFBE5348538F0A42AFA13
:10029A00E5F03BFBE5338539F0A42AFAE5F03BFBB0
:1002AA00E5368537F0A42BFBE5358538F0A42BFB22
:1002BA00E5348539F0A42BFBE533853AF0A42BFB12
:1002CA008B368A3589348833D003D002D001D000E6
:1002DA00D0D0D0F0D0E022C0E0C0D0C000C001C071
:1002EA0002C003C0047C20E4F8F9FAFBC3E5333307
:1002FA00F533E53433F534E53533F535E53633F59D
:10030A0036E833F8E933F9EA33FAEB33FBC3E89515
:10031A0037E99538EA9539EB953A4013E89537F875
:10032A00E99538F9EA9539FAEB953AFB433301DC5A
:10033A00BBD004D003D002D001D000D0D0D0E0226C
:10034A00E53C54F0C4600302037FC0E0742012004D
:10035A007ED0E0E53C540F600302037FC0E07420C6
:10036A0012007ED0E0E53B54F0C47009C0E074206E
:10037A0012007ED0E022C0E0E8C4540F44301204D8
:10038A002BE8540F443012042BD0E022C0E074084A
:10039A00141200BFD0E0C000A83C1200C4D000C0B4
:1003AA0000A83B1200C4D000C0E07408141200BFB9
:1003BA00D0E012034AC000A83F120380D000C00058
:1003CA00A83E120380D000C000A83D120380D000CE
:1003DA00C000A83C120380D000C000A83B120380D2
:1003EA00D000740D12042B740A12042B22C28478D2
:1003FA00011204127880120412E95403F543785565
:10040A001204128942D28422C0E079007A08E833C1
:10041A00F89283D281A282E933F9C281DAF0D0E07C
:10042A00223099FDC299F59922E493600612042BB1
:10043A00A380F6227400A29433A29333A2923322A9
:10044A0085423385433475350075360075376775CF
:10045A00389C753900753A0012025475371C753884
:10046A00A2753900753A001202E17537167538001F
:10047A00753900753A0012019F8533441200DA2259
:10048A00753300753400753500753600854433754B
:10049A003732753800753900753A00120240200269
:1004AA0003C29122D29122536F616B3A20202078A5
:1004BA007878DF43202020005265666C6F773A20F7
:1004CA00787878DF432020200054656D703A202028
:1004DA0020787878DF4320202000546172676574A1
:1004EA003A20787878DF43202020004F56454E2066
:1004FA004F464620202020202020200000393700A7
:10050A00E45D019444024B4A02F671039CD604430B
:10051A003C04FCA105A7C80661320702D507ADF95C
:10052A00085DE109174A09B68A0A5F500B0CD60B17
:10053A00BA5C0C6CA50CFDA30DBBCC0E69530F0362
:10054A00D20FC1FB106AC21115E811CA8E127812B5
:10055A001327FB13D0C014772515355115CD721604
:10056A008B8B172ADE17D605187ECC00AB2600AF78
:10057A00E700B70600AB2700A66500A66600B965C6
:10058A0000AB2700B96A00A1A300AB2400AFE800C2
:10059A00B969009F4000A8C600AD8600AD8600B2CA
:1005AA00490090FE00BE2900AD87009A7F00BE294F
:1005BA0000A8C700AB2600B4A600AD8400AFE900CE
:1005CA00A8C500A66500BE2C00982100BE19009F90
:1005DA005300AB2700A8C7E58954F04401F5897593
:1005EA008CEA758AE875F4EA75F2E8D2A9D28C2207
:1005FA0020040132B2A632C0E0C0D0E546454745E4
:10060A0048601E74FF1546B546071547B5470215DB
:10061A0048D2A612063CF5802480F5AD43A440805A
:10062A000CC28ED2A5C2A675AD8043A440D0D0D04C
:10063A00E0323392A4D2A0A2A1C2A092E03392A443
:10064A00D2A0A2A1C2A092E03392A4D2A0A2A1C237
:10065A00A092E03392A4D2A0A2A1C2A092E03392C7
:10066A00A4D2A0A2A1C2A092E03392A4D2A0A2A135
:10067A00C2A092E03392A4D2A0A2A1C2A092E03377
:10068A0092A4D2A0A2A1C2A092E02243CE3143CF2B
:10069A0031D2A1D2A5C2A0C2A653890F438910752F
:1006AA008DFC758B1575F5FC75F315D2AB75A5A088
:1006BA0075A43A75AD8075AC0043A440E5A420E664
:1006CA00FBD2AF75C80075CDA975CC9A75CBA97543
:1006DA00CA9AE4F530F531F532D2ADD2CA2279DEC2
:1006EA0078A6D8FED9FA438780759852759B00750B
:1006FA009AF4759B1E22D282C28122C2CFC0E0C068
:10070A00D00530E53070020531E530B4FA18E5312C
:10071A00B40013D200E4F530F5310532E532B40500
:10072A0005D201753200D0D0D0E03275817FD2AFC8
:10073A0075E60075E70075D60075D70075CE0075A9
:10074A00CF001206E81207001205E1120695120000
:10075A00881206CDD292D293D294D295C290C291E7
:10076A00C296C200C201C2037530007530007540DE
:10077A00967541F0020A7D3095FD12043EB400518F
:10078A00C296D290C0E07401141200BDD0E0C083BA
:10079A00C082C0E09004F51200B2D0E0D082D083CB
:1007AA00781D120D8B30C5FD3095FD12043EB40044
:1007BA002030000BC2001203F712044A12039620DB
:1007CA00C5E6C0027A32120039D00220C5DA020A1E
:1007DA007D3095FD12043EB4015ED296C0E07401EC
:1007EA00141200BDD0E0C083C082C0E09004E412BD
:1007FA0000B2D0E0D082D0837533007534007535ED
:10080A00007536008540331200DAC0E0740814120D
:10081A0000BDD0E0C000A83C1200C4D000C000A8AF
:10082A003B1200C4D000C0E07408141200BDD0E02E
:10083A0012034A020E62800302089030000BC200C3
:10084A001203F712044A120396300105C201020D7F
:10085A00E07533007534007535007536007537005C
:10086A00753800753900753A00854433854037126A
:10087A000240300202C29012048A3095FD12043EF0
:10088A00B401030208453095FD12043EB4024E023B
:10089A000E9130000BC2001203F712044A1203969B
:1008AA00300105C201020DE075330075340075355B
:1008BA0000753600753700753800753900753A00CD
:1008CA0085443385403712024020020DD296309576
:1008DA00FD12043EB4020680B9C29680F13095FD3D
:1008EA0012043EB40342D29675330075340075354E
:1008FA00007536008541331200DAC0E0740814121C
:10090A0000BDD0E0C000A83C1200C4D000C000A8BE
:10091A003B1200C4D000C0E07408141200BDD0E03D
:10092A0012034A020EC0800302097C30000BC20087
:10093A001203F712044A120396300105C201020D8E
:10094A00E07533007534007535007536007537006B
:10095A00753800753900753A008544338541371278
:10096A000240300202D2903095FD12043EB40302D6
:10097A0080B93095FD12043EB40451020EEF3000E6
:10098A000BC2001203F712044A120396300105C281
:10099A0001020DE0753300753400753500753600B7
:1009AA00753700753800753900753A008544338506
:1009BA00413712024020021020020DD2963095FDD6
:1009CA0012043EB4040680B6C29680F13095FD1238
:1009DA00043EB40523C296C0E07401141200BDD0CF
:1009EA00E0C083C082C0E09004F51200B2D0E0D02B
:1009FA0082D083020F1E802F3095FD12043EB4066A
:100A0A0023C296C0E07401141200BDD0E0C083C0B6
:100A1A0082C0E09004F51200B2D0E0D082D0830206
:100A2A000F4D800302078130000BC2001203F71238
:100A3A00044A120396300105C201020DE075330023
:100A4A00753400753500753600753732753800759E
:100A5A003900753A00854433120240200202C291DD
:100A6A0012048A3095FD12043EB4050280B9B40618
:100A7A00B380B4C290C0E07401141200BFD0E0C0C9
:100A8A0083C082C0E09004B11200B2D0E0D082D01C
:100A9A0083C0E07401141200BDD0E0C083C082C0DC
:100AAA00E09004C21200B2D0E0D082D08375330045
:100ABA007534007535007536008540331200DAC08A
:100ACA00E07408141200BFD0E0C000A83C1200C4B1
:100ADA00D000C000A83B1200C4D000C0E0740814C3
:100AEA001200BFD0E012034A8541331200DAC0E097
:100AFA007408141200BDD0E0C000A83C1200C4D093
:100B0A0000C000A83B1200C4D000C0E07408141250
:100B1A0000BDD0E012034A854033C0E0740B1412C2
:100B2A0000BFD0E0C0E0740E120083D0E030C5FDF3
:100B3A00208705E533B4F032208505E533B4783AE9
:100B4A00C203C0E0740B141200BFD0E0C0E0740E00
:100B5A00120083D0E020C5D8C0027A32120039D000
:100B6A000220C5CC853340020C2CC0E0740C120064
:100B7A0083D0E00533200312804DC0E0740C1200CC
:100B8A0083D0E01533200302803D1200DAC0E074FE
:100B9A0008141200BFD0E0C000A83C1200C4D00064
:100BAA00C000A83B1200C4D000C0E07408141200B0
:100BBA00BFD0E012034AC0027A19120039D00230BB
:100BCA008756308558C2031200DAC0E0740814123E
:100BDA0000BFD0E0C000A83C1200C4D000C000A8EA
:100BEA003B1200C4D000C0E07408141200BFD0E069
:100BFA0012034AC0E0740B141200BFD0E0C0E074C4
:100C0A000E120083D0E0C0027AFA120039D0023004
:100C1A008706308508020B3AD203020B3AD2030246
:100C2A000B42854133C0E0740B141200BDD0E0C002
:100C3A00E0740E120083D0E030C5FD208705E5334D
:100C4A00B4F032208505E533B4783AC203C0E074C3
:100C5A000B141200BDD0E0C0E0740E120083D0E085
:100C6A0020C5D8C0027A32120039D00220C5CC85FC
:100C7A003341020D37C0E0740C120083D0E0053313
:100C8A00200312804DC0E0740C120083D0E01533AB
:100C9A00200302803D1200DAC0E07408141200BD7D
:100CAA00D0E0C000A83C1200C4D000C000A83B128B
:100CBA0000C4D000C0E07408141200BDD0E01203D2
:100CCA004AC0027A19120039D00230875630855844
:100CDA00C2031200DAC0E07408141200BDD0E0C0EA
:100CEA0000A83C1200C4D000C000A83B1200C4D027
:100CFA0000C0E07408141200BDD0E012034AC0E03C
:100D0A00740B141200BDD0E0C0E0740E120083D040
:100D1A00E0C0027AFA120039D0023087063085081C
:100D2A00020C45D203020C45D203020C4DC0E074FA
:100D3A000C120083D0E0C0E07401141200BFD0E0AE
:100D4A00C083C082C0E09004D31200B2D0E0D08247
:100D5A00D0831203F7C0E07408141200BFD0E0C0B9
:100D6A0000A83C1200C4D000C000A83B1200C4D0A6
:100D7A0000C0E07408141200BFD0E012034A020750
:100D8A0081C28ED2A5C2A6C2A5740312063C9005E2
:100D9A0006E875F003A42582F582E5F03583F5832C
:100DAA00E49312063CA3E49312063CA3E4931206CE
:100DBA003C900575E875F003A42582F582E5F035C7
:100DCA0083F583E493F548A3E493F547A3E493F505
:100DDA0046D2A6D28E22E549B40006300502800129
:100DEA0022B4010FC3E54494655005754905801581
:100DFA00754902B4020FE54494C95006120D8B7569
:100E0A004903120D8BB4050C7444941450037549AC
:100E1A0006754908B40603754907B40700B4080300
:100E2A00754909B40900B40AF1C28ED2A5C2A6C294
:100E3A00A5740312063C741312063C74D012063CC5
:100E4A0074C012063C741312063C7548007547A616
:100E5A00754665D2A6D28E22C28ED2A5C2A6C2A5D8
:100E6A00740312063C741412063C747712063C741E
:100E7A002512063C741412063C7548007547BE7567
:100E8A00462CD2A6D28E22C28ED2A5C2A6C2A574E2
:100E9A000312063C741512063C743512063C745152
:100EAA0012063C741512063C75480075479875463B
:100EBA0021D2A6D28E22C28ED2A5C2A6C2A5740300
:100ECA0012063C741512063C74CD12063C7472125A
:100EDA00063C741512063C7548007547BE754619DE
:100EEA00D2A6D28E22C28ED2A5C2A6C2A5740312DF
:100EFA00063C741612063C748B12063C748B12065E
:100F0A003C741612063C75480075479F754653D2C5
:100F1A00A6D28E22C28ED2A5C2A6C2A5740312067A
:100F2A003C741712063C742A12063C74DE12063C04
:100F3A00741712063C7548007547AB754627D2A64A
:100F4A00D28E22C28ED2A5C2A6C2A5740312063CB4
:100F5A00741712063C74D612063C740512063C74C9
:100F6A001712063C7548007547A87546C7D2A6D21F
:020F7A008E22C5
:00000001FF
